:020000040800F2
:10000000000001205D900008618F00086D8F0008DE
:10001000738F0008798F00087F8F000800000000B0
:10002000000000000000000000000000858F0008B4
:10003000918F0008000000009D8F0008A98F000824
:10004000A5900008A5900008A5900008A5900008BC
:10005000A5900008A5900008A5900008A5900008AC
:10006000A5900008A5900008A5900008B98F000889
:10007000A5900008A5900008A5900008A59000088C
:10008000A5900008A5900008CD8F0008A590000855
:10009000A5900008A5900008A5900008A59000086C
:1000A000A5900008A5900008A5900008A59000085C
:1000B000A5900008A5900008E18F0008A590000811
:1000C000A5900008A5900008A5900008A59000083C
:1000D000A5900008A5900008A5900008A59000082C
:1000E000A5900008A5900008A5900008A59000081C
:1000F000A5900008A5900008A5900008A59000080C
:10010000A5900008A5900008A5900008A5900008FB
:10011000A5900008A5900008A5900008A5900008EB
:10012000A5900008A5900008A5900008A5900008DB
:1001300000000000000000000000000000000000BF
:1001400000000000000000000000000000000000AF
:10015000000000000000000000000000000000009F
:10016000000000000000000000000000000000008F
:10017000000000000000000000000000000000007F
:10018000000000000000000000000000000000006F
:10019000000000000000000000000000000000005F
:1001A000000000000000000000000000000000004F
:1001B000000000000000000000000000000000003F
:1001C000000000000000000000000000000000002F
:1001D000000000000000000000000000000000001F
:0401E0005FF8E0F1F3
:1001E80010B5054C237833B9044B13B10448AFF369
:1001F80000800123237010BD2403002000000000AC
:10020800E0B8020808B5034B1BB103490348AFF334
:10021800008008BD0000000028030020E0B80208A4
:1002280081F0004102E000BF83F0004330B54FEA9F
:1002380041044FEA430594EA050F08BF90EA020F0C
:100248001FBF54EA000C55EA020C7FEA645C7FEA9F
:10025800655C00F0E2804FEA5454D4EB5555B8BFC2
:100268006D420CDD2C4480EA020281EA030382EA33
:10027800000083EA010180EA020281EA0303362DC5
:1002880088BF30BD11F0004F4FEA01314FF4801C98
:100298004CEA113102D0404261EB410113F0004FAA
:1002A8004FEA03334CEA133302D0524263EB430361
:1002B80094EA050F00F0A780A4F10104D5F1200EFF
:1002C8000DDB02FA0EFC22FA05F2801841F100015A
:1002D80003FA0EF2801843FA05F359410EE0A5F12E
:1002E80020050EF1200E012A03FA0EFC28BF4CF05F
:1002F800020C43FA05F3C01851EBE37101F0004515
:1003080007D54FF0000EDCF1000C7EEB00006EEB21
:100318000101B1F5801F1BD3B1F5001F0CD34908AB
:100328005FEA30004FEA3C0C04F101044FEA445202
:1003380012F5800F80F09A80BCF1004F08BF5FEA89
:10034800500C50F1000041EB045141EA050130BD69
:100358005FEA4C0C404141EB010111F4801FA4F10C
:100368000104E9D191F0000F04BF01460020B1FA61
:1003780081F308BF2033A3F10B03B3F120020CDA99
:100388000C3208DD02F1140CC2F10C0201FA0CF077
:1003980021FA02F10CE002F11402D8BFC2F1200CDC
:1003A80001FA02F120FA0CFCDCBF41EA0C01904092
:1003B800E41AA2BF01EB0451294330BD6FEA0404DB
:1003C8001F3C1CDA0C340EDC04F11404C4F12002C6
:1003D80020FA04F001FA02F340EA030021FA04F3D8
:1003E80045EA030130BDC4F10C04C4F1200220FA2F
:1003F80002F001FA04F340EA0300294630BD21FA6D
:1004080004F0294630BD94F0000F83F4801306BF32
:1004180081F480110134013D4EE77FEA645C18BF26
:100428007FEA655C29D094EA050F08BF90EA020FBD
:1004380005D054EA000C04BF1946104630BD91EAB5
:10044800030F1EBF0021002030BD5FEA545C05D1B8
:100458004000494128BF41F0004130BD14F58004F7
:100468003CBF01F5801130BD01F0004545F0FE416B
:1004780041F470014FF0000030BD7FEA645C1ABFA0
:10048800194610467FEA655C1CBF0B46024650EAD7
:10049800013406BF52EA033591EA030F41F4002103
:1004A80030BD00BF90F0000F04BF0021704730B589
:1004B8004FF4806404F132044FF000054FF000015E
:1004C80050E700BF90F0000F04BF0021704730B51F
:1004D8004FF4806404F1320410F0004548BF4042F4
:1004E8004FF000013EE700BF42004FEAE2014FEA49
:1004F80031014FEA02701FBF12F07F4393F07F4F24
:1005080081F06051704732F07F4208BF704793F026
:100518007F4F04BF41F40021704730B54FF4607439
:1005280001F0004521F000411CE700BF50EA01023C
:1005380008BF704730B54FF000050AE050EA0102E5
:1005480008BF704730B511F0004502D5404261EB55
:1005580041014FF4806404F132045FEA915C3FF496
:10056800D8AE4FF003025FEADC0C18BF03325FEA33
:10057800DC0C18BF033202EBDC02C2F1200300FAE4
:1005880003FC20FA02F001FA03FE40EA0E0021FA09
:1005980002F11444BDE600BF70B54FF0FF0C4CF4F7
:1005A800E06C1CEA11541DBF1CEA135594EA0C0FA9
:1005B80095EA0C0F00F0DEF82C4481EA030621EAE4
:1005C8004C5123EA4C5350EA013518BF52EA03351F
:1005D80041F4801143F4801338D0A0FB02CE4FF0D1
:1005E8000005E1FB02E506F00042E0FB03E54FF001
:1005F8000006E1FB03569CF0000F18BF4EF0010EF9
:10060800A4F1FF04B6F5007F64F5407404D25FEAF4
:100618004E0E6D4146EB060642EAC62141EA5551A7
:100628004FEAC52040EA5E504FEACE2EB4F1FD0CE9
:1006380088BFBCF5E06F1ED8BEF1004F08BF5FEA67
:10064800500E50F1000041EB045170BD06F0004619
:1006580046EA010140EA020081EA0301B4EB5C04C6
:10066800C2BFD4EB0C0541EA045170BD41F48011BE
:100678004FF0000E013C00F3AB8014F1360FDEBFE3
:10068800002001F0004170BDC4F10004203C35DABF
:100698000C341BDC04F11404C4F1200500FA05F342
:1006A80020FA04F001FA05F240EA020001F00042E3
:1006B80021F0004110EBD37021FA04F642EB060159
:1006C8005EEA430E08BF20EAD37070BDC4F10C0483
:1006D800C4F1200500FA04F320FA05F001FA04F247
:1006E80040EA020001F0004110EBD37041F1000133
:1006F8005EEA430E08BF20EAD37070BDC4F120053E
:1007080000FA05F24EEA020E20FA04F301FA05F2A5
:1007180043EA020321FA04F001F0004121FA04F24D
:1007280020EA020000EBD3705EEA430E08BF20EA1D
:10073800D37070BD94F0000F0FD101F00046400057
:1007480041EB010111F4801F08BF013CF7D041EAD9
:10075800060195F0000F18BF704703F000465200DD
:1007680043EB030313F4801F08BF013DF7D043EAAE
:100778000603704794EA0C0F0CEA135518BF95EA64
:100788000C0F0CD050EA410618BF52EA4306D1D1EB
:1007980081EA030101F000414FF0000070BD50EA0A
:1007A800410606BF1046194652EA430619D094EA94
:1007B8000C0F02D150EA013613D195EA0C0F05D17E
:1007C80052EA03361CBF104619460AD181EA0301D2
:1007D80001F0004141F0FE4141F470014FF000008A
:1007E80070BD41F0FE4141F4780170BD70B54FF025
:1007F800FF0C4CF4E06C1CEA11541DBF1CEA1355A5
:1008080094EA0C0F95EA0C0F00F0A7F8A4EB050486
:1008180081EA030E52EA03354FEA013100F088807D
:100828004FEA03334FF0805545EA131343EA126346
:100838004FEA022245EA111545EA10654FEA0026FB
:100848000EF000419D4208BF964244F1FD0404F5B4
:10085800407402D25B084FEA3202B61A65EB030510
:100868005B084FEA32024FF480104FF4002CB6EBCD
:10087800020E75EB030E22BFB61A754640EA0C004D
:100888005B084FEA3202B6EB020E75EB030E22BF8D
:10089800B61A754640EA5C005B084FEA3202B6EBCE
:1008A800020E75EB030E22BFB61A754640EA9C008D
:1008B8005B084FEA3202B6EB020E75EB030E22BF5D
:1008C800B61A754640EADC0055EA060E18D04FEA1B
:1008D800051545EA16754FEA06164FEAC30343EABB
:1008E80052734FEAC2025FEA1C1CC0D111F4801F88
:1008F8000BD141EA00014FF000004FF0004CB6E781
:1009080011F4801F04BF01430020B4F1FD0C88BF1F
:10091800BCF5E06F3FF6AFAEB5EB030C04BFB6EB2A
:10092800020C5FEA500C50F1000041EB045170BD1D
:100938000EF0004E4EEA113114EB5C04C2BFD4EB4A
:100948000C0541EA045170BD41F480114FF0000ECE
:10095800013C90E645EA060E8DE60CEA135594EA4A
:100968000C0F08BF95EA0C0F3FF43BAF94EA0C0F4D
:100978000AD150EA01347FF434AF95EA0C0F7FF4C2
:1009880025AF104619462CE795EA0C0F06D152EA16
:1009980003353FF4FDAE1046194622E750EA4106FA
:1009A80018BF52EA43067FF4C5AE50EA41047FF40B
:1009B8000DAF52EA43057FF4EBAE12E74FF0FF3C70
:1009C80006E000BF4FF0010C02E000BF4FF0010C41
:1009D8004DF804CD4FEA410C7FEA6C5C4FEA430CBA
:1009E80018BF7FEA6C5C1BD001B050EA410C0CBF09
:1009F80052EA430C91EA030F02BF90EA020F00206B
:100A0800704710F1000F91EA030F58BF994208BFD1
:100A180090422CBFD8176FEAE37040F0010070478E
:100A28004FEA410C7FEA6C5C02D150EA013C07D1E5
:100A38004FEA430C7FEA6C5CD6D152EA033CD3D030
:100A48005DF8040B704700BF8446104662468C462A
:100A58001946634600E000BF01B5FFF7B7FF00285D
:100A680048BF10F1000F01BD4DF808EDFFF7F4FF86
:100A78000CBF012000205DF808FB00BF4DF808ED11
:100A8800FFF7EAFF34BF012000205DF808FB00BF34
:100A98004DF808EDFFF7E0FF94BF012000205DF856
:100AA80008FB00BF4DF808EDFFF7CEFF94BF01200B
:100AB80000205DF808FB00BF4DF808EDFFF7C4FF04
:100AC80034BF012000205DF808FB00BF4FEA410C4D
:100AD8007FEA6C5C02D150EA013C0AD14FEA430C30
:100AE8007FEA6C5C02D152EA033C02D14FF000006D
:100AF80070474FF0010070474FEA4102B2F1E043FE
:100B080024BFB3F5001CDCF1FE5C0DD901F0004CEC
:100B18004FEAC0024CEA5070B2F1004F40EB83003C
:100B280008BF20F00100704711F0804F21D113F168
:100B38003872BCBF01F00040704741F480114FEAA1
:100B48005252C2F11802C2F1200C10FA0CF320FA2A
:100B580002F018BF40F001004FEAC1234FEAD32347
:100B680003FA0CFC40EA0C0023FA02F34FEA4303B1
:100B7800CCE77FEA625307D150EA01331EBF4FF03A
:100B8800FE4040F44000704701F0004040F0FE4055
:100B980040F40000704700BF80F0004002E000BF52
:100BA80081F0004142001FBF5FEA410392EA030F50
:100BB8007FEA226C7FEA236C6AD04FEA1262D2EB9A
:100BC8001363C1BFD218414048404140B8BF5B429F
:100BD800192B88BF704710F0004F40F4000020F038
:100BE8007F4018BF404211F0004F41F4000121F04E
:100BF8007F4118BF494292EA030F3FD0A2F1010298
:100C080041FA03FC10EB0C00C3F1200301FA03F1D5
:100C180000F0004302D5494260EB4000B0F5000FF8
:100C280013D3B0F1807F06D340084FEA310102F1B7
:100C38000102FE2A51D2B1F1004F40EBC25008BF69
:100C480020F0010040EA03007047490040EB000033
:100C580010F4000FA2F10102EDD1B0FA80FCACF162
:100C6800080CB2EB0C0200FA0CF0AABF00EBC25061
:100C780052421843BCBFD0401843704792F0000F4F
:100C880081F4000106BF80F400000132013BB5E7A2
:100C98004FEA41037FEA226C18BF7FEA236C21D018
:100CA80092EA030F04D092F0000F08BF084670477D
:100CB80090EA010F1CBF0020704712F07F4F04D14B
:100CC800400028BF40F00040704712F100723CBF5E
:100CD80000F50000704700F0004343F0FE4040F488
:100CE800000070477FEA226216BF08467FEA236346
:100CF8000146420206BF5FEA412390EA010F40F431
:100D0800800070474FF0000304E000BF10F000437C
:100D180048BF40425FEA000C08BF704743F0964363
:100D280001464FF000001CE050EA010208BF70477E
:100D38004FF000030AE000BF50EA010208BF704705
:100D480011F0004302D5404261EB41015FEA010C1A
:100D580002BF84460146002043F0B64308BFA3F112
:100D68008053A3F50003BCFA8CF2083AA3EBC253F4
:100D780010DB01FA02FC634400FA02FCC2F1200213
:100D8800BCF1004F20FA02F243EB020008BF20F04A
:100D98000100704702F1200201FA02FCC2F12002B0
:100DA80050EA4C0021FA02F243EB020008BF20EAA5
:100DB800DC7070474FF0FF0C1CEAD0521EBF1CEAD3
:100DC800D15392EA0C0F93EA0C0F6FD01A4480EAC1
:100DD800010C400218BF5FEA41211ED04FF00063AA
:100DE80043EA501043EA5111A0FB01310CF00040D6
:100DF800B1F5000F3EBF490041EAD3715B0040EAFC
:100E0800010062F17F02FD2A1DD8B3F1004F40EBCB
:100E1800C25008BF20F00100704790F0000F0CF09E
:100E2800004C08BF49024CEA502040EA51207F3A62
:100E3800C2BFD2F1FF0340EAC250704740F400003D
:100E48004FF00003013A5DDC12F1190FDCBF00F02E
:100E580000407047C2F10002410021FA02F1C2F1DC
:100E6800200200FA02FC5FEA310040F1000053EA78
:100E78004C0308BF20EADC70704792F0000F00F0C6
:100E8800004C02BF400010F4000F013AF9D040EACC
:100E98000C0093F0000F01F0004C02BF490011F460
:100EA800000F013BF9D041EA0C018FE70CEAD1535E
:100EB80092EA0C0F18BF93EA0C0F0AD030F0004CDE
:100EC80018BF31F0004CD8D180EA010000F0004092
:100ED800704790F0000F17BF90F0004F084691F050
:100EE800000F91F0004F14D092EA0C0F01D142028A
:100EF8000FD193EA0C0F03D14B0218BF084608D153
:100F080080EA010000F0004040F0FE4040F400009C
:100F1800704740F0FE4040F4400070474FF0FF0C2F
:100F28001CEAD0521EBF1CEAD15392EA0C0F93EA76
:100F38000C0F69D0A2EB030280EA010C49024FEAC8
:100F4800402037D04FF0805343EA111143EA101381
:100F58000CF000408B4238BF5B0042F17D024FF439
:100F6800000C8B4224BF5B1A40EA0C00B3EB510F14
:100F780024BFA3EB510340EA5C00B3EB910F24BFFD
:100F8800A3EB910340EA9C00B3EBD10F24BFA3EB82
:100F9800D10340EADC001B0118BF5FEA1C1CE0D14A
:100FA800FD2A3FF650AF8B4240EBC25008BF20F0FD
:100FB800010070470CF0004C4CEA50207F32C2BF51
:100FC800D2F1FF0340EAC250704740F400004FF0EE
:100FD8000003013A37E792F0000F00F0004C02BF1F
:100FE800400010F4000F013AF9D040EA0C0093F0E9
:100FF800000F01F0004C02BF490011F4000F013B43
:10100800F9D041EA0C0195E70CEAD15392EA0C0FAA
:1010180008D142027FF47DAF93EA0C0F7FF470AFE2
:10102800084676E793EA0C0F04D14B023FF44CAF25
:1010380008466EE730F0004C18BF31F0004CCAD1BA
:1010480030F000427FF45CAF31F000437FF43CAFF6
:101058005FE700BF4FF0FF3C06E000BF4FF0010C18
:1010680002E000BF4FF0010C4DF804CD4FEA4002FA
:101078004FEA41037FEA226C18BF7FEA236C11D044
:1010880001B052EA530C18BF90EA010F58BFB2EBF7
:10109800030088BFC81738BF6FEAE17018BF40F077
:1010A800010070477FEA226C02D15FEA402C05D12B
:1010B8007FEA236CE4D15FEA412CE1D05DF8040BB0
:1010C800704700BF844608466146FFE70FB5FFF743
:1010D800C9FF002848BF10F1000F0FBD4DF808EDFB
:1010E800FFF7F4FF0CBF012000205DF808FB00BFEC
:1010F8004DF808EDFFF7EAFF34BF012000205DF846
:1011080008FB00BF4DF808EDFFF7E0FF94BF012092
:1011180000205DF808FB00BF4DF808EDFFF7D2FF8F
:1011280094BF012000205DF808FB00BF4DF808EDD2
:10113800FFF7C8FF34BF012000205DF808FB00BF9F
:101148004FEA40024FEA41037FEA226C02D15FEA8C
:10115800402C08D17FEA236C02D15FEA412C02D1EE
:101168004FF0000070474FF0010070474FEA40020F
:10117800B2F1FE4F0FD34FF09E03B3EB12620DD9BD
:101188004FEA002343F0004310F0004F23FA02F027
:1011980018BF404270474FF00000704712F1610FCE
:1011A80001D1420205D110F0004008BF6FF00040A5
:1011B80070474FF00000704742000ED2B2F1FE4F68
:1011C8000BD34FF09E03B3EB126209D44FEA00230E
:1011D80043F0004323FA02F070474FF000007047D5
:1011E80012F1610F01D1420202D14FF0FF30704776
:1011F8004FF00000704700BF53B94AB9002908BF33
:1012080000281CBF4FF0FF314FF0FF3000F074B9D9
:10121800ADF1080C6DE904CE00F006F8DDF804E045
:10122800DDE9022304B070472DE9F0478C460446F7
:10123800089E002B4BD18A42154667D9B2FA82F232
:101248004AB1C2F1200701FA02F320FA07F79540E4
:1012580047EA030C94404FEA154EBCFBFEF71FFA11
:1012680085F80EFB17C307FB08F9210C41EA034375
:10127800994509D9EB1807F1FF3180F01C81994590
:1012880040F21981023F2B44A3EB0903B3FBFEF0A4
:101298000EFB103300FB08F1A4B244EA0344A14258
:1012A80009D92C1900F1FF3380F00781A14240F2DF
:1012B800048102382C4440EA07400027641A1EB112
:1012C8000023D440C6E900433946BDE8F0878B4285
:1012D80009D9002E00F0EC800027C6E90001384645
:1012E8003946BDE8F087B3FA83F7002F48D18B421F
:1012F80002D3824200F2FB80841A61EB03030120CF
:101308009C46002EE0D0C6E9004CDDE702B9FFDEBE
:10131800B2FA82F2002A40F08F800127491B4FEA77
:1013280015481FFA85F9B1FBF8FE08FB1E1109FBE9
:101338000EF04FEA144C4CEA0143984207D9EB18D7
:101348000EF1FF3102D2984200F2CD808E461B1A70
:10135800B3FBF8F008FB103309FB00F9A4B244EA28
:101368000344A14507D92C1900F1FF3302D2A14546
:1013780000F2B6801846A4EB090440EA0E409EE746
:10138800C7F12005BB4022FA05FC4CEA030C21FA00
:1013980005F44FEA1C4EB4FBFEF91FFA8CF80EFB5D
:1013A800194420FA05F3B94009FB08FA19430B0C54
:1013B80043EA0444A24502FA07F200FA07F30BD9FC
:1013C8001CEB040409F1FF3080F08880A24540F24C
:1013D8008580A9F102096444A4EB0A04B4FBFEF079
:1013E8000EFB104400FB08FA89B241EA0444A24506
:1013F80008D91CEB040400F1FF316BD2A24569D96E
:101408000238644440EA0940A0FB0289A4EB0A04BC
:101418004C454146CE4654D351D0002E69D05A1A75
:1014280064EB0E0404FA05F522FA07F3FC401D43A9
:10143800C6E90054002747E79540C2F1200321FA86
:1014480003F04FEA1548B0FBF8F71FFA85F908FBD7
:10145800170024FA03F3914007FB09FC0B43190C0E
:1014680041EA00418C4504FA02F407D9691807F1EA
:10147800FF3031D28C452FD9023F2944A1EB0C0112
:10148800B1FBF8F008FB101C00FB09FE99B241EA19
:101498000C418E4507D9691800F1FF3318D28E45E3
:1014A80016D902382944A1EB0E0140EA07473AE76A
:1014B8003746304608E70F46E6E61846FBE643455A
:1014C800ABD2B8EB020169EB0C0201389646A4E7EF
:1014D8001846E8E7084695E70746CFE781467BE7E1
:1014E80002382C4447E7AEF1020E2B442FE738466A
:1014F80007E73746E8E600BF704700BF10F8012B42
:1015080011F8013B012A28BF9A42F7D0D01A704738
:10151800034613F8012B002AFBD1181A013870472B
:101528004FEA410212F5001215D211D56FF4787303
:10153800B3EB625212D94FEAC12343F0004343EAA6
:10154800505311F0004F23FA02F018BF4042704781
:101558004FF00000704750EA013005D111F000400B
:1015680008BF6FF0004070474FF00000704700BFA1
:101578004A0011D212F5001211D20DD56FF478730A
:10158800B3EB62520ED44FEAC12343F0004343EA5F
:10159800505323FA02F070474FF00000704750EAAA
:1015A800013002D14FF0FF3070474FF00000704714
:1015B80080B500AF084B1B68074A43F0100313605F
:1015C800032000F07FFE002000F008F807F0D8FBA9
:1015D8000023184680BD00BF0020024080B582B0BD
:1015E80000AF7860094B1B68094AA2FB03239B09DB
:1015F800184600F09CFE002279684FF0FF3000F09A
:101608006CFE002318460837BD4680BD58000020F0
:10161800D34D621080B400AF044B1B680133034AFA
:10162800136000BFBD4680BC704700BFC81A0020C9
:1016380080B400AF024B1B681846BD4680BC70479B
:10164800C81A002080B584B000AF7860FFF7F0FFBB
:10165800B8607B68FB60FB68B3F1FF3F02D0FB68B2
:101668000133FB6000BFFFF7E3FF0246BB68D31AF4
:10167800FA689A42F7D800BF1037BD4680BD00000F
:1016880080B586B000AF78600023FB7500233B610E
:101698000023BB600023FB607B68002B01D1012382
:1016A800CEE07B689B68002B7B689B6A002B09D186
:1016B8007B680022DA627B68002283F8242078683D
:1016C80007F0AEFB786800F08BFC0346FB757B687F
:1016D8009B6A03F01003002B40F0A980FB7D002BD0
:1016E80040F0A5807B689B6A23F4885323F00203AB
:1016F80043F002027B689A627B685A687B681B68C1
:1017080051498B420AD17B68DB69B3F5402F02D07F
:101718007B68DB6904E04FF4002301E07B68DB6948
:101728001A437B68DB685B001343BA681343BB60EA
:101738007B689B68B3F5807F03D07B689B68012B2F
:1017480002D14FF4807300E000233A6913433B61F0
:101758007B685B69012B19D17B68DB68002B09D199
:101768007B689B69013B5A033B69134343F400635D
:101778003B610BE07B689B6A43F020027B689A62BE
:101788007B68DB6A43F001027B68DA627B681B686E
:101798005B6823F469417B681B683A690A435A60AD
:1017A8007B681B689A68294B13407A681268B96885
:1017B8000B4393607B689B68B3F5807F03D07B689D
:1017C8009B68012B04D17B681B69013B1B05FB60EF
:1017D8007B681B68DB6A23F470017B681B68FA6806
:1017E8000A43DA627B681B689A68194B1340BA6827
:1017F8009A420BD17B680022DA627B689B6A23F0ED
:10180800030343F001027B689A6218E07B689B6AD5
:1018180023F0120343F010027B689A627B68DB6A4C
:1018280043F001027B68DA620123FB7507E07B68FD
:101838009B6A43F010027B689A620123FB75FB7D6B
:1018480018461837BD4680BD003C0140FDF7E1FF52
:10185800FE0E1FFF80B584B000AF78600023FB73D5
:101868007B6893F82430012B01D10223A0E07B6828
:10187800012283F82420786800F060FB0346FB739C
:10188800FB7B002B40F08F807B689B6A23F470639E
:1018980023F0010343F480727B689A627B681B68BB
:1018A800454A934205D1454B5B6803F47023002BEE
:1018B80015D17B689B6A23F480127B689A627B68E7
:1018C8001B685B6803F48063002B26D07B689B6AE7
:1018D80023F4405343F480527B689A621DE07B688E
:1018E8009B6A43F480127B689A627B681B68334A60
:1018F800934204D07B681B682F4A93420DD12F4B2B
:101908005B6803F48063002B07D07B689B6A23F431
:10191800405343F480527B689A627B689B6A03F465
:101928008053002B06D07B68DB6A23F006027B68B5
:10193800DA6202E07B680022DA627B68002283F8C0
:1019480024207B681B686FF002021A607B681B68A2
:101958005A687B681B6842F020025A607B681B68E3
:101968009B6803F46023B3F5602F13D17B681B6871
:10197800114A934205D1114B5B6803F47023002B85
:1019880008D17B681B689A687B681B6842F4A002D0
:101998009A600CE07B681B689A687B681B6842F455
:1019A80080129A6003E07B68002283F82420FB7B86
:1019B80018461037BD4680BD00280140002401406C
:1019C80080B586B000AFF860B9607A600023FB7517
:1019D800FB681B68644A934204D0FB681B68634A2F
:1019E800934206D1604B5B6803F47023002B40F0F0
:1019F800B380FB6893F82430012B01D10223AEE0B9
:101A0800FB68012283F82420F86800F097FA03465F
:101A1800FB75FB7D002B40F09A80FB689B6A23F4E2
:101A2800706323F0010343F48072FB689A62FB68D9
:101A38001B684E4A934205D14B4B5B6803F47023F5
:101A4800002B15D1FB689B6A23F48012FB689A620D
:101A5800FB681B685B6803F48063002B26D0FB6877
:101A68009B6A23F4405343F48052FB689A621DE05A
:101A7800FB689B6A43F48012FB689A62FB681B68E8
:101A8800394A934204D0FB681B68384A93420DD107
:101A9800354B5B6803F48063002B07D0FB689B6AB7
:101AA80023F4405343F48052FB689A62FB689B6AB4
:101AB80003F48053002B06D0FB68DB6A23F0060290
:101AC800FB68DA6202E0FB680022DA62FB68002247
:101AD80083F82420FB681B6A254A9A62FB681B6A04
:101AE800244ADA62FB681B6A234A1A63FB681B688C
:101AF8006FF002021A60FB681B689A68FB681B6833
:101B080042F480729A60FB68186AFB681B684C3361
:101B18001946BA687B6800F0C1FCFB681B689B68C3
:101B280003F46023B3F5602F08D1FB681B689A683B
:101B3800FB681B6842F4A0029A600FE0FB681B6810
:101B48009A68FB681B6842F480129A6006E0FB689A
:101B5800002283F8242001E00123FB75FB7D184651
:101B68001837BD4680BD00BF002401400028014051
:101B78005D200008D9200008F520000880B582B053
:101B880000AF78607B681B685B6803F02003202B3C
:101B980040D17B681B681B6803F00203022B39D114
:101BA8007B689B6A03F01003002B05D17B689B6A56
:101BB80043F400727B689A627B681B689B6803F435
:101BC8006023B3F5602F1DD17B68DB68002B19D12A
:101BD8007B681B685A687B681B6822F020025A6081
:101BE8007B689B6A23F480727B689A627B689B6A35
:101BF80003F48053002B05D17B689B6A43F00102F4
:101C08007B689A62786800F07CF87B681B686FF0E4
:101C180012021A607B681B685B6803F08003802BE4
:101C28004FD17B681B681B6803F00403042B48D161
:101C38007B689B6A03F01003002B05D17B689B6AC5
:101C480043F400527B689A627B681B689B6803F4C4
:101C5800E043B3F5E04F12D07B681B685B6803F480
:101C68008063002B25D17B681B689B6803F4602385
:101C7800B3F5602F1DD17B68DB68002B19D17B6819
:101C88001B685A687B681B6822F080025A607B6870
:101C98009B6A23F480527B689A627B689B6A03F490
:101CA8008073002B05D17B689B6A43F001027B6837
:101CB8009A62786800F034FA7B681B686FF00C024F
:101CC8001A607B681B685B6803F04003402B14D1E3
:101CD8007B681B681B6803F00103012B0DD17B682F
:101CE8009B6A43F480327B689A62786800F01BF83C
:101CF8007B681B686FF001021A6000BF0837BD4699
:101D080080BD80B483B000AF786000BF0C37BD469B
:101D180080BC704780B483B000AF786000BF0C37D8
:101D2800BD4680BC704780B483B000AF786000BF08
:101D38000C37BD4680BC704780B483B000AF786074
:101D480000BF0C37BD4680BC7047000080B485B02A
:101D580000AF786039600023FB730023BB607B68A9
:101D680093F82430012B01D10223DCE07B680122A7
:101D780083F824203B685B68062B1CD87B681B68AB
:101D8800596B3B685A6813469B001344053B1F2256
:101D980002FA03F3DB4319403B6818683B685A684A
:101DA80013469B001344053B00FA03F27B681B684B
:101DB8000A435A633CE03B685B680C2B1CD87B6881
:101DC8001B68196B3B685A6813469B001344233BF6
:101DD8001F2202FA03F3DB4319403B6818683B688B
:101DE8005A6813469B001344233B00FA03F27B68AE
:101DF8001B680A431A631BE07B681B68D96A3B6847
:101E08005A6813469B001344413B1F2202FA03F30E
:101E1800DB4319403B6818683B685A6813469B00C7
:101E28001344413B00FA03F27B681B680A43DA62F9
:101E38003B681B68092B1CD97B681B68D9683B6801
:101E48001A6813465B0013441E3B072202FA03F389
:101E5800DB4319403B6898683B681A6813465B0087
:101E680013441E3B00FA03F27B681B680A43DA60DE
:101E780019E07B681B6819693B681A6813465B00A0
:101E88001344072202FA03F3DB4319403B689868BE
:101E98003B681A6813465B00134400FA03F27B6838
:101EA8001B680A431A613B681B68102B03D03B6808
:101EB8001B68112B32D17B681B681D4A934225D1C0
:101EC8007B681B689B6803F40003002B26D17B68A2
:101ED8001B689A687B681B6842F400029A603B683A
:101EE8001B68102B1AD1134B1B68134AA2FB032340
:101EF8009A0C13469B0013445B00BB6002E0BB686E
:101F0800013BBB60BB68002BF9D107E07B689B6A8B
:101F180043F020027B689A620123FB737B680022EE
:101F280083F82420FB7B18461437BD4680BC7047D5
:101F3800002401405800002083DE1B4380B584B094
:101F480000AF78600023FB600023BB607B681B68E0
:101F58009B6803F00103012B39D07B681B689A68E2
:101F68007B681B6842F001029A601B4B1B681B4A86
:101F7800A2FB03239B0CBB6002E0BB68013BBB6078
:101F8800BB68002BF9D1FFF753FBF86018E0FFF7A7
:101F98004FFB0246FB68D31A022B11D97B689B6A58
:101FA80043F010027B689A627B68DB6A43F00102A7
:101FB8007B68DA627B68002283F82420012307E02B
:101FC8007B681B689B6803F00103012BDFD10023AA
:101FD80018461037BD4680BD5800002083DE1B43DD
:101FE80080B584B000AF78600023FB607B681B6815
:101FF8009B6803F00103012B27D17B681B689A6853
:102008007B681B6822F001029A60FFF711FBF860F9
:1020180014E0FFF70DFB0246FB68D31A022B0DD91B
:102028007B689B6A43F010027B689A627B68DB6A74
:1020380043F001027B68DA62012307E07B681B68D2
:102048009B6803F00103012BE3D0002318461037E7
:10205800BD4680BD80B584B000AF78607B685B6AA0
:10206800FB60FB689B6A03F05003002B27D1FB68D9
:102078009B6A43F40072FB689A62FB681B689B6862
:1020880003F46023B3F5602F15D1FB68DB68002BE0
:1020980011D1FB689B6A23F48072FB689A62FB6823
:1020A8009B6A03F48053002B05D1FB689B6A43F0BD
:1020B8000102FB689A62F868FFF723FE04E0FB68F8
:1020C8001B6A1B6B7868984700BF1037BD4680BDF8
:1020D80080B584B000AF78607B685B6AFB60F868A5
:1020E800FFF718FE00BF1037BD4680BD80B584B02D
:1020F80000AF78607B685B6AFB60FB689B6A43F0B3
:102108004002FB689A62FB68DB6A43F00402FB68E2
:10211800DA62F868FFF710FE00BF1037BD4680BDD1
:1021280080B483B000AF786000BF0C37BD4680BC78
:102138007047000080B485B000AF78607B6803F01A
:102148000703FB600C4BDB68BB60BA684FF6FF0304
:102158001340BB60FB681A02BB68134343F0BF63BC
:1021680043F40033BB60044ABB68D36000BF143734
:10217800BD4680BC704700BF00ED00E080B400AFF2
:10218800044BDB681B0A03F007031846BD4680BCF6
:10219800704700BF00ED00E080B483B000AF034695
:1021A800FB71FB7903F01F02064997F907305B09B9
:1021B800012000FA02F241F8232000BF0C37BD4687
:1021C80080BC704700E100E080B483B000AF0346F4
:1021D8003960FB7197F90730002B0BDA3B68DAB2EC
:1021E8000C49FB7903F00F03043B1201D2B20B44F4
:1021F8001A7609E03B68DAB2074997F90730120105
:10220800D2B20B4483F8002300BF0C37BD4680BC14
:10221800704700BF00ED00E000E100E080B489B045
:1022280000AFF860B9607A60FB6803F00703FB61F0
:10223800FB69C3F10703042B28BF0423BB61FB69B7
:102248000433062B02D9FB69033B00E000237B61C2
:102258004FF0FF32BB6902FA03F3DA43BB681A4056
:102268007B699A404FF0FF317B6901FA03F3D94348
:102278007B680B40134318462437BD4680BC704723
:1022880080B582B000AF78607B68013BB3F1807F96
:1022980001D301230FE00A4A7B68013B53600F21F9
:1022A8004FF0FF30FFF790FF054B00229A60044B78
:1022B80007221A60002318460837BD4680BD00BFB4
:1022C80010E000E080B582B000AF78607868FFF772
:1022D80031FF00BF0837BD4680BD80B586B000AF6E
:1022E8000346B9607A60FB7300237B61FFF746FF02
:1022F80078617A68B9687869FFF790FF024697F9BC
:102308000F3011461846FFF75FFF00BF1837BD466C
:1023180080BD80B582B000AF0346FB7197F90730E6
:102328001846FFF739FF00BF0837BD4680BD80B5A6
:1023380082B000AF78607868FFF7A2FF03461846BE
:102348000837BD4680BD000080B483B000AF786018
:102358007B68042B06D1094B1B68084A43F0040329
:10236800136005E0054B1B68044A23F0040313605F
:1023780000BF0C37BD4680BC704700BF10E000E0CE
:1023880080B500AF00F002F800BF80BD80B400AF98
:1023980000BFBD4680BC704780B485B000AF786090
:1023A8000023FB607B68002B01D1012365E07B687B
:1023B8001B681A46334B9A420FD87B681B681A462B
:1023C800314B1344314AA2FB03231B099A007B6853
:1023D8001A647B682E4ADA630EE07B681B681A462B
:1023E8002C4B1344294AA2FB03231B099A007B6840
:1023F8001A647B68284ADA637B68022283F8212002
:102408007B681B681B68FB60FB6823F47F5323F021
:102418003003FB607B685A687B689B681A437B685B
:10242800DB681A437B681B691A437B685B691A433C
:102438007B689B691A437B68DB691343FA6813431B
:10244800FB607B681B68FA681A607B6800229A62E6
:102458007B680022DA627B6800221A637B680022AC
:102468005A637B6800229A637B68012283F82120E3
:102478007B68002283F82020002318461437BD46C5
:1024880080BC704707040240F8FFFDBFCDCCCCCC20
:1024980000000240F8FBFDBF0004024080B586B092
:1024A80000AFF860B9607A603B600023FB75FB6899
:1024B80093F82030012B01D102234AE0FB68012266
:1024C80083F82020FB6893F82130012B3AD1FB6870
:1024D800022283F82120FB6800229A63FB681B68AC
:1024E8001A68FB681B6822F001021A603B687A6868
:1024F800B968F86800F06EFAFB68DB6A002B08D050
:10250800FB681B681A68FB681B6842F00E021A60B9
:102518000FE0FB681B681A68FB681B6822F004025E
:102528001A60FB681B681A68FB681B6842F00A029D
:102538001A60FB681B681A68FB681B6842F0010296
:102548001A6005E0FB68002283F820200223FB754F
:10255800FB7D18461837BD4680BD000080B584B0A5
:1025680000AF78607B68DB6B1B68FB607B681B686F
:102578001B68BB607B681B6C04229A40FB68134095
:10258800002B00F0D680BB6803F00403002B00F09A
:10259800D0807B681B681B6803F02003002B07D1E1
:1025A8007B681B681A687B681B6822F004021A6043
:1025B8007B681B681A469B4B9A4258D97B681B68F4
:1025C800994A93424FD07B681B68984A934248D0F7
:1025D8007B681B68964A934240D07B681B68954A83
:1025E800934238D07B681B68934A934230D07B680B
:1025F8001B68924A934228D07B681B68894A934299
:1026080020D07B681B688E4A934219D07B681B6870
:102618008C4A934212D07B681B688B4A93420AD03B
:102628007B681B68894A934202D14FF480431BE0C0
:102638004FF4802318E04FF4806315E0402313E043
:10264800042311E04FF080630EE04FF480030BE0A9
:102658004FF4802308E04FF4804305E04FF4806393
:1026680002E0402300E00423794A536057E07B6886
:102678001B686D4A93424FD07B681B686B4A934234
:1026880048D07B681B686A4A934240D07B681B68C5
:10269800684A934238D07B681B68674A934230D0B7
:1026A8007B681B68654A934228D07B681B685D4A33
:1026B800934220D07B681B68614A934219D07B689B
:1026C8001B68604A934212D07B681B685E4A93423B
:1026D8000AD07B681B685D4A934202D14FF480435D
:1026E8001BE04FF4802318E04FF4806315E040238B
:1026F80013E0042311E04FF080630EE04FF48003F1
:102708000BE04FF4802308E04FF4804305E04FF4DA
:10271800806302E0402300E004234E4A53607B6854
:10272800DB6A002B00F036817B68DB6A78689847A3
:1027380030E17B681B6C02229A40FB681340002B37
:1027480000F0F880BB6803F00203002B00F0F28071
:102758007B681B681B6803F02003002B0BD17B6888
:102768001B681A687B681B6822F00A021A607B687B
:10277800012283F821207B681B681A46294B9A425C
:1027880073D97B681B68284A93426AD07B681B68A8
:10279800264A934263D07B681B68254A93425BD0E4
:1027A8007B681B68234A934238D07B681B68224A9F
:1027B800934230D07B681B68204A934228D07B68BC
:1027C8001B68184A934220D07B681B681C4A9342B6
:1027D80019D07B681B681B4A934212D07B681B6820
:1027E800194A93420AD07B681B68184A934202D15F
:1027F8004FF4005336E04FF4003333E04FF40073E6
:1028080030E020232EE002232CE04FF0007329E073
:102818004FF4001326E04FF4003323E04FF4005345
:1028280020E000BF80000240080002401C00024077
:102838003000024044000240580002406C00024050
:10284800080402401C0402403004024044040240D0
:1028580000040240000002404FF4007302E020230D
:1028680000E002234E4A536057E07B681B684D4ADC
:1028780093424FD07B681B684B4A934248D07B6891
:102888001B684A4A934240D07B681B68484A934277
:1028980038D07B681B68474A934230D07B681B68F6
:1028A800454A934228D07B681B68444A934220D00B
:1028B8007B681B68424A934219D07B681B68414A6F
:1028C800934212D07B681B683F4A93420AD07B68C8
:1028D8001B683E4A934202D14FF400531BE04FF469
:1028E800003318E04FF4007315E0202313E00223AF
:1028F80011E04FF000730EE04FF400130BE04FF4BB
:10290800003308E04FF4005305E04FF4007302E091
:10291800202300E002232E4A53607B68002283F8BC
:1029280020207B689B6A002B34D07B689B6A786880
:1029380098472FE07B681B6C08229A40FB6813407D
:10294800002B28D0BB6803F00803002B23D07B683A
:102958001B681A687B681B6822F00E021A607B6885
:102968001A6C7B68DB6B012101FA02F25A607B6802
:1029780001229A637B68012283F821207B68002268
:1029880083F820207B681B6B002B04D07B681B6BB3
:102998007868984700BF00BF1037BD4680BD00BFAC
:1029A80000040240080002401C00024030000240BF
:1029B80044000240580002406C000240800002407F
:1029C800080402401C04024030040240440402404F
:1029D8000000024080B485B000AFF860B9607A604A
:1029E8003B60FB681A6CFB68DB6B012101FA02F2A1
:1029F8005A60FB681B683A685A60FB685B68102B72
:102A080008D1FB681B687A689A60FB681B68BA681B
:102A1800DA6007E0FB681B68BA689A60FB681B68A5
:102A28007A68DA6000BF1437BD4680BC7047000082
:102A380080B48BB000AF786039600023FB6100235D
:102A4800BB6100237B6100233B6200233B610023C1
:102A58007B6233E101227B6A02FA03F3FB613B6884
:102A68001B68FA691340BB61BA69FB699A4240F076
:102A780022813B685B68122B34D0122B0DD8022BB5
:102A88002BD0022B04D8002B31D0012B1CD048E0CE
:102A9800032B43D0112B1BD043E08D4A934226D001
:102AA8008B4A934206D88B4A934220D08A4A934253
:102AB8001DD036E0894A934219D0894A934216D0EC
:102AC800884A934213D02CE03B68DB683B6228E0DD
:102AD8003B68DB6804333B6223E03B68DB68083310
:102AE8003B621EE03B68DB680C333B6219E03B68E5
:102AF8009B68002B02D104233B6212E03B689B6871
:102B0800012B05D108233B627B68FA691A6108E04A
:102B180008233B627B68FA695A6102E000233B6242
:102B280000BFBB69FF2B01D87B6801E07B680433D9
:102B3800FB60BB69FF2B02D87B6A9B0002E07B6AC3
:102B4800083B9B003B61FB681A680F213B6901FA4F
:102B580003F3DB431A40396A3B6901FA03F31A436A
:102B6800FB681A603B685B6803F08053002B00F039
:102B7800A2805D4B9B695C4A43F0010393615A4B09
:102B88009B6903F00103BB60BB68584A7B6A9B08DA
:102B9800023352F823307B617B6A03F003039B0006
:102BA8000F2202FA03F3DB437A6913407B617B68E7
:102BB8004F4A93421FD07B684E4A934219D07B6894
:102BC8004D4A934213D07B684C4A93420DD07B68A0
:102BD8004B4A934207D07B684A4A934201D1052366
:102BE8000AE0062308E0042306E0032304E00223A6
:102BF80002E0012300E000237A6A02F00302920057
:102C080093407A6913437B6138497B6A9B08023396
:102C18007A6941F823203B685B6803F48033002B12
:102C280006D0394B1A683849BB6913430B6006E074
:102C3800354B1A68BB69DB43334913400B603B686B
:102C48005B6803F40033002B06D02F4B5A682E49DB
:102C5800BB6913434B6006E02B4B5A68BB69DB43E7
:102C6800294913404B603B685B6803F48013002BD1
:102C780006D0254B9A682449BB6913438B6006E04C
:102C8800214B9A68BB69DB431F4913408B603B6843
:102C98005B6803F40013002B06D01B4BDA681A4953
:102CA800BB691343CB6006E0174BDA68BB69DB43AB
:102CB80015491340CB607B6A01337B627B6A0F2B1B
:102CC8007FF6C8AE00BF2C37BD4680BC704700BF3A
:102CD8000000211000001110000012100000311037
:102CE80000003210000022100010024000000140D5
:102CF80000080140000C0140001001400014014090
:102D080000180140001C01400004014080B485B057
:102D180000AF78600B467B807B689A687B8813409D
:102D2800002B02D00123FB7301E00023FB73FB7B24
:102D380018461437BD4680BC704780B483B000AFD6
:102D480078600B467B8013467B707B78002B03D022
:102D58007A887B681A6103E07B881A047B681A61A9
:102D680000BF0C37BD4680BC7047000080B586B0F8
:102D780000AF786000233B617B681B6803F00103A8
:102D8800002B00F08780924B5B6803F00C03042B48
:102D98000CD08F4B5B6803F00C03082B12D18C4BC3
:102DA8005B6803F48033B3F5803F0BD1884B1B6815
:102DB80003F40033002B6CD07B685B68002B68D170
:102DC80001232DE27B685B68B3F5803F06D1804B19
:102DD8001B687F4A43F4803313602EE07B685B688E
:102DE800002B0CD17A4B1B68794A23F4803313608B
:102DF800774B1B68764A23F4802313601DE07B68B9
:102E08005B68B3F5A02F0CD1714B1B68704A43F473
:102E1800802313606E4B1B686D4A43F48033136044
:102E28000BE06B4B1B686A4A23F480331360684BD2
:102E38001B68674A23F4802313607B685B68002B58
:102E480013D0FEF7F5FB386108E0FEF7F1FB024608
:102E58003B69D31A642B01D90323E1E15C4B1B685E
:102E680003F40033002BF0D014E0FEF7E1FB3861E7
:102E780008E0FEF7DDFB02463B69D31A642B01D953
:102E88000323CDE1524B1B6803F40033002BF0D130
:102E980000E000BF7B681B6803F00203002B63D0CF
:102EA8004B4B5B6803F00C03002B0BD0484B5B6863
:102EB80003F00C03082B1CD1454B5B6803F48033EB
:102EC800002B16D1424B1B6803F00203002B05D0E0
:102ED8007B681B69012B01D00123A1E13C4B1B68D6
:102EE80023F0F8027B685B69DB00394913430B6008
:102EF8003AE07B681B69002B20D0364B01221A6010
:102F0800FEF796FB386108E0FEF792FB02463B6944
:102F1800D31A022B01D9032382E12D4B1B6803F03E
:102F28000203002BF0D02A4B1B6823F0F8027B68C1
:102F38005B69DB00264913430B6015E0254B002233
:102F48001A60FEF775FB386108E0FEF771FB024670
:102F58003B69D31A022B01D9032361E11C4B1B687F
:102F680003F00203002BF0D17B681B6803F0080311
:102F7800002B39D07B689B69002B19D0164B012296
:102F88001A60FEF755FB386108E0FEF751FB024670
:102F98003B69D31A022B01D9032341E10C4B5B6A2D
:102FA80003F00203002BF0D0012000F0A3FA1BE08D
:102FB800094B00221A60FEF73BFB38610EE0FEF772
:102FC80037FB02463B69D31A022B07D9032327E1B3
:102FD800001002400000424280044242924B5B6A69
:102FE80003F00203002BEAD17B681B6803F004039B
:102FF800002B00F0A6800023FB758B4BDB6903F0E8
:103008008053002B0DD1884BDB69874A43F08053EE
:10301800D361854BDB6903F08053FB60FB680123B8
:10302800FB75824B1B6803F48073002B18D17F4B10
:103038001B687E4A43F480731360FEF7F9FA38611F
:1030480008E0FEF7F5FA02463B69D31A642B01D96A
:103058000323E5E0754B1B6803F48073002BF0D065
:103068007B68DB68012B06D16F4B1B6A6E4A43F005
:10307800010313622DE07B68DB68002B0CD16A4BDF
:103088001B6A694A23F001031362674B1B6A664A8D
:1030980023F0040313621CE07B68DB68052B0CD16A
:1030A800614B1B6A604A43F0040313625E4B1B6A60
:1030B8005D4A43F0010313620BE05B4B1B6A5A4AFB
:1030C80023F001031362584B1B6A574A23F0040389
:1030D80013627B68DB68002B15D0FEF7A9FA38610C
:1030E8000AE0FEF7A5FA02463B69D31A41F2883294
:1030F800934201D9032393E04B4B1B6A03F002036D
:10310800002BEED014E0FEF793FA38610AE0FEF7E0
:103118008FFA02463B69D31A41F28832934201D9A9
:1031280003237DE0404B1B6A03F00203002BEED122
:10313800FB7D012B05D13C4BDB693B4A23F08053D7
:10314800D3617B68DB69002B69D0374B5B6803F080
:103158000C03082B61D07B68DB69022B46D1344B0A
:1031680000221A60FEF764FA386108E0FEF760FA98
:1031780002463B69D31A022B01D9032350E02A4B9C
:103188001B6803F00073002BF0D17B681B6AB3F552
:10319800803F08D1244B5B6823F400327B689B682E
:1031A800214913434B60204B5B6823F474127B68FE
:1031B800196A7B685B6A0B431B4913434B601C4BC2
:1031C80001221A60FEF734FA386108E0FEF730FA97
:1031D80002463B69D31A022B01D9032320E0124B84
:1031E8001B6803F00073002BF0D018E0104B00228E
:1031F8001A60FEF71DFA386108E0FEF719FA024670
:103208003B69D31A022B01D9032309E0064B1B683B
:1032180003F00073002BF0D101E0012300E000234C
:1032280018461837BD4680BD0010024000700040A7
:103238006000424280B584B000AF786039600023F6
:10324800FB60724B1B6803F007033A689A4210D977
:103258006E4B1B6823F007026C493B6813430B60F5
:103268006A4B1B6803F007033A689A4201D00123AE
:10327800C8E07B681B6803F00203002B08D0644B8E
:103288005B6823F0F0027B689B68614913434B60DD
:103298007B681B6803F00103002B6AD07B685B68BE
:1032A800012B07D15A4B1B6803F40033002B15D1AF
:1032B8000123A7E07B685B68022B07D1544B1B688E
:1032C80003F00073002B09D101239BE0504B1B68CE
:1032D80003F00203002B01D1012393E04C4B5B6800
:1032E80023F003027B685B68494913434B60FEF790
:1032F8009FF9F8607B685B68012B12D10AE0FEF742
:1033080097F90246FB68D31A41F28832934201D9F1
:10331800032377E03E4B5B6803F00C03042BEED1EC
:1033280027E07B685B68022B1DD10AE0FEF780F975
:103338000246FB68D31A41F28832934201D903232B
:1033480060E0334B5B6803F00C03082BEED110E010
:10335800FEF76EF90246FB68D31A41F288329342AF
:1033680001D903234EE02A4B5B6803F00C03002BC2
:10337800EED1264B1B6803F007033A689A4210D235
:10338800224B1B6823F0070220493B6813430B605C
:103398001E4B1B6803F007033A689A4201D00123C9
:1033A80030E07B681B6803F00403002B08D0184B3F
:1033B8005B6823F4E0627B68DB68154913434B6064
:1033C8007B681B6803F00803002B09D0104B5B686F
:1033D80023F460527B681B69DB000D4913434B6083
:1033E80000F01CF801460A4B5B681B0903F00F0349
:1033F800084AD35C21FA03F3074A13600020FEF75A
:10340800EDF8002318461037BD4680BD0020024065
:10341800001002400CBB02085800002090B48AB08B
:1034280000AF2A4B3C1D0FCB84E80F00284B1B88AC
:103438003B800023FB610023BB6100237B620023E8
:103448007B6100233B62234B5B68FB61FB6903F0F4
:103458000C03042B02D0082B03D02DE01E4B3B623B
:103468002DE0FB699B0C03F00F0307F128021344BE
:1034780013F8243C7B61FB6903F48033002B13D0E1
:10348800144B5B685B0C03F0010307F1280213443B
:1034980013F8283CBB61104ABB69B2FBF3F27B69A5
:1034A80002FB03F37B6204E07B690C4A02FB03F333
:1034B8007B627B6A3B6202E0074B3B6200BF3B6A70
:1034C80018462837BD4690BC704700BFF8B80208B8
:1034D80008B902080010024000127A0000093D00F5
:1034E80080B400AF024B1B681846BD4680BC7047CD
:1034F8005800002080B485B000AF78600A4B1B6884
:103508000A4AA2FB03235B0A7A6802FB03F3FB6007
:1035180000BFFB685A1EFA60002BF9D100BF1437B0
:10352800BD4680BC704700BF58000020D34D6210D4
:1035380080B586B000AF786000233B610023FB6054
:103548007B681B6803F00103002B7DD00023FB750B
:103558004F4BDB6903F08053002B0DD14C4BDB69DB
:103568004B4A43F08053D361494BDB6903F08053E6
:10357800BB60BB680123FB75464B1B6803F4807373
:10358800002B18D1434B1B68424A43F480731360E5
:10359800FEF74EF8386108E0FEF74AF802463B6944
:1035A800D31A642B01D903236DE03A4B1B6803F44B
:1035B8008073002BF0D0364B1B6A03F44073FB601A
:1035C800FB68002B2ED07B685B6803F44073FA68B5
:1035D8009A4227D02E4B1B6A23F44073FB602E4B74
:1035E80001221A602C4B00221A60294AFB681362D8
:1035F800FB6803F00103002B14D0FEF719F83861BB
:103608000AE0FEF715F802463B69D31A41F2883200
:10361800934201D9032336E01D4B1B6A03F00203D2
:10362800002BEED01A4B1B6A23F440727B685B6850
:10363800174913430B62FB7D012B05D1144BDB6942
:10364800134A23F08053D3617B681B6803F002039D
:10365800002B08D00E4B5B6823F440427B689B68C4
:103668000B4913434B607B681B6803F01003002B66
:1036780008D0074B5B6823F480027B685B690449C8
:1036880013434B60002318461837BD4680BD00BF62
:1036980000100240007000404004424280B582B0F1
:1036A80000AF78607B68002B01D101231DE07B68A7
:1036B80093F83D30DBB2002B06D17B68002283F8FB
:1036C8003C20786805F004FC7B68022283F83D20E2
:1036D8007B681A687B6804331946104600F062FB61
:1036E8007B68012283F83D20002318460837BD4631
:1036F80080BD80B483B000AF78607B681B68DA68EF
:103708007B681B6842F00102DA607B681B681A68F4
:103718007B681B6842F001021A60002318460C37C8
:10372800BD4680BC704780B582B000AF78607B68CA
:10373800002B01D101231DE07B6893F83D30DBB2FB
:10374800002B06D17B68002283F83C20786800F0C3
:1037580015F87B68022283F83D207B681A687B682D
:1037680004331946104600F01DFB7B68012283F8DC
:103778003D20002318460837BD4680BD80B483B07D
:1037880000AF786000BF0C37BD4680BC70470000B2
:1037980080B582B000AF786039607B681B68012211
:1037A8003968184600F0E5FD7B681B68104A9342AB
:1037B80004D07B681B680F4A934201D1012300E0C3
:1037C8000023002B07D07B681B685A6C7B681B683A
:1037D80042F400425A647B681B681A687B681B685D
:1037E80042F001021A60002318460837BD4680BD22
:1037F800002C01400034014080B582B000AF7860F1
:103808007B681B681B6903F00203022B22D17B68CB
:103818001B68DB6803F00203022B1BD17B681B6863
:103828006FF002021A617B6801221A777B681B68B5
:103838009B6903F00303002B03D0786800F097FA24
:1038480005E0786800F08AFA786800F099FA7B68F1
:1038580000221A777B681B681B6903F00403042B9A
:1038680022D17B681B68DB6803F00403042B1BD19F
:103878007B681B686FF004021A617B6802221A7762
:103888007B681B689B6903F44073002B03D078683E
:1038980000F06DFA05E0786800F060FA786800F0EA
:1038A8006FFA7B6800221A777B681B681B6903F034
:1038B8000803082B22D17B681B68DB6803F0080328
:1038C800082B1BD17B681B686FF008021A617B68A4
:1038D80004221A777B681B68DB6903F00303002B5B
:1038E80003D0786800F043FA05E0786800F036FA0B
:1038F800786800F045FA7B6800221A777B681B68B5
:103908001B6903F01003102B22D17B681B68DB684E
:1039180003F01003102B1BD17B681B686FF010029B
:103928001A617B6808221A777B681B68DB6903F4D5
:103938004073002B03D0786800F019FA05E0786826
:1039480000F00CFA786800F01BFA7B6800221A77FE
:103958007B681B681B6903F00103012B0ED17B6890
:103968001B68DB6803F00103012B07D17B681B6828
:103978006FF001021A61786800F0E7F97B681B684C
:103988001B6903F08003802B0ED17B681B68DB6802
:1039980003F08003802B07D17B681B686FF08002DF
:1039A8001A61786800F054FD7B681B681B6903F096
:1039B8004003402B0ED17B681B68DB6803F0400393
:1039C800402B07D17B681B686FF040021A6178684A
:1039D80000F0DFF97B681B681B6903F02003202BCC
:1039E8000ED17B681B68DB6803F02003202B07D10E
:1039F8007B681B686FF020021A61786800F01FFD71
:103A080000BF0837BD4680BD80B584B000AFF86000
:103A1800B9607A60FB6893F83C30012B01D102232E
:103A2800B4E0FB68012283F83C20FB68022283F89B
:103A38003D207B680C2B00F29F8001A252F823F0F6
:103A48007D3A0008813B0008813B0008813B000863
:103A5800BD3A0008813B0008813B0008813B000813
:103A6800FF3A0008813B0008813B0008813B0008C1
:103A78003F3B0008FB681B68B968184600F010FA5D
:103A8800FB681B689A69FB681B6842F008029A6128
:103A9800FB681B689A69FB681B6822F004029A613C
:103AA800FB681B689969BB681A69FB681B680A434D
:103AB8009A6162E0FB681B68B968184600F066FA0C
:103AC800FB681B689A69FB681B6842F400629A618C
:103AD800FB681B689A69FB681B6822F480629A611C
:103AE800FB681B689969BB681B691A02FB681B683D
:103AF8000A439A6141E0FB681B68B968184600F000
:103B0800BFFAFB681B68DA69FB681B6842F00802A9
:103B1800DA61FB681B68DA69FB681B6822F004023B
:103B2800DA61FB681B68D969BB681A69FB681B689E
:103B38000A43DA6121E0FB681B68B968184600F09F
:103B480019FBFB681B68DA69FB681B6842F40062B2
:103B5800DA61FB681B68DA69FB681B6822F480621B
:103B6800DA61FB681B68D969BB681B691A02FB68C4
:103B78001B680A43DA6100E000BFFB68012283F892
:103B88003D20FB68002283F83C20002318461037AC
:103B9800BD4680BD80B584B000AF78603960002331
:103BA800FB607B6893F83C30012B01D10223C8E00D
:103BB8007B68012283F83C207B68022283F83D2041
:103BC8007B681B689B68FB60FB6823F07703FB60DE
:103BD800FB6823F47F43FB607B681B68FA689A6084
:103BE8003B681B68402B77D0402B0ED8102B00F079
:103BF8008A80102B02D8002B7ED099E0202B00F071
:103C08008980302B00F08D8092E0702B16D0702BBD
:103C180004D8502B40D0602B4ED089E0B3F5805F9C
:103C280003D0B3F5005F24D082E07B681B689A68F4
:103C38007B681B6822F007029A6079E07B68186845
:103C48003B6899683B685A683B68DB6800F070FB22
:103C58007B681B689B68FB60FB6823F07703FB604D
:103C6800FB6843F07703FB607B681B68FA689A601F
:103C78005EE07B6818683B6899683B685A683B68EF
:103C8800DB6800F055FB7B681B689A687B681B68DB
:103C980042F480429A604BE07B6818683B68596838
:103CA8003B68DB681A4600F0BFFA7B681B68502146
:103CB800184600F01EFB3BE07B6818683B685968B3
:103CC8003B68DB681A4600F0E1FA7B681B686021F4
:103CD800184600F00EFB2BE07B6818683B685968B3
:103CE8003B68DB681A4600F09FFA7B681B68402136
:103CF800184600F0FEFA1BE07B681B680021184696
:103D080000F0F7FA14E07B681B681021184600F0F1
:103D1800F0FA0DE07B681B682021184600F0E9FAEC
:103D280006E07B681B683021184600F0E2FA00BF05
:103D38007B68012283F83D207B68002283F83C20C1
:103D4800002318461037BD4680BD80B483B000AF4D
:103D5800786000BF0C37BD4680BC704780B483B024
:103D680000AF786000BF0C37BD4680BC704780B498
:103D780083B000AF786000BF0C37BD4680BC704789
:103D880080B483B000AF786000BF0C37BD4680BCFC
:103D9800704780B483B000AF786000BF0C37BD4671
:103DA80080BC704780B485B000AF7860396000236C
:103DB800FB607B681B68FB607B68344A934213D0C6
:103DC8007B68334A93420FD07B68B3F1804F0BD0A6
:103DD8007B68304A934207D07B682F4A934203D0CE
:103DE8007B682E4A934208D1FB6823F07003FB607E
:103DF8003B685B68FA681343FB607B68234A93421D
:103E080013D07B68224A93420FD07B68B3F1804F6E
:103E18000BD07B681F4A934207D07B681E4A9342A7
:103E280003D07B681D4A934208D1FB6823F4407392
:103E3800FB603B68DB68FA681343FB60FB6823F0B0
:103E48008003FB603B685B69FA681343FB607B682F
:103E5800FA681A603B689A687B68DA623B681A6895
:103E68007B689A627B68094A934203D07B68084A58
:103E7800934203D13B681A697B681A637B68012205
:103E88005A6100BF1437BD4680BC7047002C014002
:103E9800003401400004004000080040000C0040CD
:103EA80080B487B000AF786039600023FB600023DE
:103EB8007B6100233B617B681B6A23F001027B68FE
:103EC8001A627B681B6A7B617B685B683B617B6805
:103ED8009B69FB60FB6823F07003FB60FB6823F0C1
:103EE8000303FB603B681B68FA681343FB607B694C
:103EF80023F002037B613B689B687A6913437B610B
:103F08007B68204A934203D07B681F4A93420CD1B6
:103F18007B6923F008037B613B68DB687A6913439C
:103F28007B617B6923F004037B617B68154A9342BC
:103F380003D07B68144A934211D13B6923F4807300
:103F48003B613B6923F400733B613B685B693A69F9
:103F580013433B613B689B693A6913433B617B6848
:103F68003A695A607B68FA689A613B685A687B6864
:103F78005A637B687A691A6200BF1C37BD4680BCE9
:103F8800704700BF002C01400034014080B487B066
:103F980000AF786039600023FB6000237B61002359
:103FA8003B617B681B6A23F010027B681A627B689E
:103FB8001B6A7B617B685B683B617B689B69FB6014
:103FC800FB6823F4E043FB60FB6823F44073FB6069
:103FD8003B681B681B02FA681343FB607B6923F08C
:103FE80020037B613B689B681B017A6913437B61F3
:103FF8007B68214A934203D07B68204A93420DD1C3
:104008007B6923F080037B613B68DB681B017A696D
:1040180013437B617B6923F040037B617B68164A0D
:10402800934203D07B68154A934213D13B6923F42A
:1040380080633B613B6923F400633B613B685B69D8
:104048009B003A6913433B613B689B699B003A6953
:1040580013433B617B683A695A607B68FA689A61E6
:104068003B685A687B689A637B687A691A6200BF02
:104078001C37BD4680BC7047002C0140003401400D
:1040880080B487B000AF786039600023FB600023FC
:104098007B6100233B617B681B6A23F480727B6829
:1040A8001A627B681B6A7B617B685B683B617B6823
:1040B800DB69FB60FB6823F07003FB60FB6823F09F
:1040C8000303FB603B681B68FA681343FB607B696A
:1040D80023F400737B613B689B681B027A69134376
:1040E8007B617B68214A934203D07B68204A9342D4
:1040F8000DD17B6923F400637B613B68DB681B029D
:104108007A6913437B617B6923F480637B617B68F5
:10411800164A934203D07B68154A934213D13B69F0
:1041280023F480533B613B6923F400533B613B68B4
:104138005B691B013A6913433B613B689B691B013F
:104148003A6913433B617B683A695A607B68FA684D
:10415800DA613B685A687B68DA637B687A691A6255
:1041680000BF1C37BD4680BC704700BF002C014013
:104178000034014080B487B000AF78603960002314
:104188003B610023FB6000237B617B681B6A23F48F
:1041980080527B681A627B681B6AFB607B685B687D
:1041A8007B617B68DB693B613B6923F4E0433B61EE
:1041B8003B6923F440733B613B681B681B023A6907
:1041C80013433B61FB6823F40053FB603B689B6827
:1041D8001B03FA681343FB607B68114A934203D0C0
:1041E8007B68104A934209D17B6923F480437B6141
:1041F8003B685B699B017A6913437B617B687A69D9
:104208005A607B683A69DA613B685A687B681A6465
:104218007B68FA681A6200BF1C37BD4680BC7047CD
:10422800002C01400034014080B487B000AFF86032
:10423800B9607A6000237B6100233B61FB681B6ADD
:104248003B61FB681B6A23F00102FB681A62FB688A
:104258009B697B617B6923F0F0037B617B681B01B1
:104268007A6913437B613B6923F00A033B613A692E
:10427800BB6813433B61FB687A699A61FB683A69DA
:104288001A6200BF1C37BD4680BC704780B487B037
:1042980000AFF860B9607A6000237B6100233B615E
:1042A800FB681B6A23F01002FB681A62FB689B69B3
:1042B8007B61FB681B6A3B617B6923F470437B610C
:1042C8007B681B037A6913437B613B6923F0A00376
:1042D8003B61BB681B013A6913433B61FB687A6920
:1042E8009A61FB683A691A6200BF1C37BD4680BCF8
:1042F800704780B485B000AF78600B467B800023A0
:10430800FB607B689B68FB60FB6823F07003FB60C5
:104318007B8843F007039BB21A46FB681343FB6094
:104328007B68FA689A6000BF1437BD4680BC704746
:1043380080B487B000AFF860B9607A603B60002352
:104348007B61FB689B687B617B6923F47F437B61AE
:104358003B681A027B681A43BB6813437A691343A4
:104368007B61FB687A699A6000BF1C37BD4680BCD8
:10437800704780B487B000AFF860B9607A600023F6
:104388007B610122BB6802FA03F37B61FB681A6A4E
:104398007B69DB431A40FB681A62FB681A6A796812
:1043A800BB6801FA03F31A43FB681A6200BF1C37A3
:1043B800BD4680BC704780B483B000AF7860396078
:1043C8007B6893F83C30012B01D1022332E07B68F3
:1043D800012283F83C207B68022283F83D207B6819
:1043E8001B685A687B681B6822F070025A607B68F9
:1043F8001B6859683B681A687B681B680A435A60DF
:104408007B681B689A687B681B6822F080029A6048
:104418007B681B6899683B685A687B681B680A4315
:104428009A607B68012283F83D207B68002283F82C
:104438003C20002318460C37BD4680BC704780B42A
:1044480083B000AF786000BF0C37BD4680BC7047B2
:1044580080B483B000AF786000BF0C37BD4680BC25
:10446800704780B582B000AF786078681DF068FF4B
:10447800034618460837BD4680BD80B582B000AFF8
:10448800786078681DF068FD034618460837BD4611
:1044980080BD80B483B000AF786039603B6818464F
:1044A8000C37BD4680BC704780B584B000AF7860DB
:1044B8003960386800F0A9FE114B1B68072B02DD34
:1044C8000F4B00221A600023FB60FB68012B0FDCF6
:1044D8000B4B1B685A00FB6813449B00094A1344A2
:1044E8001946386800F09FFEFB680133FB60ECE773
:1044F800386800F0BDFE034618461037BD4680BD3B
:10450800440300200CB9020880B584B000AF78607D
:104518003960386800F079FE0023FB60FB68012BE6
:104528000FDC0E4B1B685A00FB6813449B000C4AB7
:1045380013441946386800F076FEFB680133FB60C7
:10454800ECE7064B1B680133044A1360386800F037
:104558008FFE034618461037BD4680BD4403002031
:104568004CB9020880B483B000AF786039607B68CA
:104578003A681A6000BF0C37BD4680BC704780B4EB
:1045880083B000AF78607B681B6818460C37BD465F
:1045980080BC704790B589B000AFF860B9607A60A8
:1045A800FB680433184600F073FE0023FB61FA69C8
:1045B800BB689A421BD2FB681A1D4FF000037B614F
:1045C8004FF00003BB6107F114031946104600F0D1
:1045D80091FEFB680433184600F09DFE044600F087
:1045E800EFF903462360FB690133FB61DFE7FB68F2
:1045F8007A681A61FB6818462437BD4690BD90B5A5
:1046080085B000AF786039604FF00003FB6000238D
:10461800BB60386800F09AFE0246BB68934234BF1C
:1046280001230023DBB2002B25D0B968386800F0DD
:10463800A3FE03461846FFF7A2FF0446B968386888
:1046480000F09AFE03461A1D7B681B69194610463E
:1046580000F0A4FE03461B6819462046FCF7AAFB97
:1046680003461946F868FCF79DFA0346FB60BB68E9
:104678000133BB60CDE7F86800F05BF902467B6860
:104688001A6000BF1437BD4690BD80B584B000AF36
:10469800786039607B681B6819463868FCF780FACF
:1046A8000346FB607B681B68184600F063F9034605
:1046B800F9681846FCF77EFB03461A467B685A6180
:1046C80000BF1037BD4680BD80B584B000AF7860AC
:1046D80039603968786800F0F3F8F8607B681B681F
:1046E800184600F047F90346F9681846FCF762FBDC
:1046F80003461A467B685A6100BF1037BD4680BD25
:1047080090B587B000AF7860396000237B61386866
:1047180000F01CFE02467B69934234BF012300234C
:10472800DBB2002B4FD07969386800F046FE38615B
:104738003B691A1D7B681B691946104600F04FFE3D
:1047480003465B68FB603869FFF719FF0246204B98
:104758001B6819461046FCF72DFB03461A467B6872
:104768005B6919461046FCF725FB03461C46194BA6
:104778001B68F9681846FCF71DFB034619462046D6
:10478800FCF710FA0346BB603B691A1D7B681B697E
:104798001946104600F023FE0246BB6853603B6989
:1047A8001A1D7B681B691946104600F018FE04465E
:1047B8002368B9681846FCF7F5F9034623607B6956
:1047C80001337B61A3E700BF1C37BD4690BD00BF26
:1047D800480000204C00002080B584B000AF78600D
:1047E80039600023FB60386800F0B0FD0246FB68C2
:1047F800934234BF01230023DBB2002B1ED0F9689B
:10480800386800F0DAFDB860BB681A1D7B681B6960
:104818001946104600F0E3FD02460A4B1B8819466C
:104828001368094A42F82130064B1B8801339AB2B3
:10483800044B1A80FB680133FB60D4E700BF1037D4
:10484800BD4680BD6C0300207003002090B585B084
:1048580000AF786039600023FB60386800F076FDAF
:104868000246FB68934234BF01230023DBB2002BCE
:104878001ED0F968386800F0A0FDB8600E4B1B88A0
:104888001C46BB681A1D7B681B691946104600F058
:10489800A6FD0246094B53F824301360064B1B88CB
:1048A80001339AB2044B1A80FB680133FB60D4E7EA
:1048B80000BF1437BD4690BD6C03002004000020E3
:1048C80090B585B000AF786039604FF00003FB60A9
:1048D8000023BB60386800F039FD0346013BBA6825
:1048E8009A4234BF01230023DBB2002B1CD07B6823
:1048F8000433B968184600F051FD03461C68B968CE
:10490800386800F039FD03465B6919462046FCF714
:1049180051FA03461946F868FCF744F90346FB6068
:10492800BB680133BB60D5E7FB6818461437BD4642
:1049380090BD80B582B000AF78607868FFF79DFDC4
:10494800034618460837BD4680BD90B585B000AF10
:10495800F860C7E90023F868FBF7C6FDD7E900232C
:104968001DF054FB03460C46184621461437BD4635
:1049780090BD000090B583B000AF78607868FFF70D
:104988007CFD01464FF000024FF080430846FFF7D8
:10499800DCFF03460C461A4623464FF00000074941
:1049A800FBF742FC03460C4618462146FCF7A4F8E0
:1049B800034618460C37BD4690BD00BF0000F03FC7
:1049C80080B500AF1FF0E2FF03461846FCF79EF9DA
:1049D80003464FF09E411846FCF7A0FA03461846D6
:1049E80080BD80B483B000AF78607B681B691846CF
:1049F8000C37BD4680BC704780B582B000AF786088
:104A08007B680433184600F050FC7B68184608376A
:104A1800BD4680BD90B591B000AF786039607B68C5
:104A2800184600F0EBFC7B684FF00002DA607B6808
:104A38004FF000021A617B684FF000025A61386833
:104A480000F0E9FC78630023FB63FA6B7B6B9A4206
:104A580060D27C6807F10C03184600F0ECFC07F103
:104A68000C031946204600F018FD07F10C03184600
:104A780000F0EEFC386800F0CEFC0346013BFA6B10
:104A88009A4208D0FB6B01331946386800F016FDCE
:104A980003461B6800E000233B630023BB63F96BFC
:104AA800386800F00BFD03461B68BA6B9A4294BF46
:104AB80001230023DBB2002B1AD07B68184600F0D4
:104AC8000CFD044607F11803BA6B396B1846FFF75B
:104AD80061FD07F118031946204600F023FD07F190
:104AE80018031846FFF788FFBB6B0133BB63D6E793
:104AF8007B68184600F0F1FC0346184600F023FDD9
:104B080003464FF07E511846FFF72CFDFB6B01332F
:104B1800FB639AE77B6818464437BD4690BD0000A2
:104B280090B587B000AF78603960386800F0A0FBB6
:104B380004467B680021184600F020FD034618460D
:104B480000F004FC0346013B9C4206D03A4B3B4A2A
:104B580040F217113A481EF06FFD00237B61386858
:104B680000F086FB02467B69934234BF0123002391
:104B7800DBB2002B18D07B680021184600F0FEFC41
:104B880003467969184600F018FC044679693868C4
:104B980000F006FD03461B6819462046FFF7E2FCB5
:104BA8007B6901337B61DAE701233B617B68184647
:104BB80000F006FD02463B69934234BF01230023FF
:104BC800DBB2002B33D07A683B69013B19461046AB
:104BD80000F0D4FCB8600023FB607B683969184694
:104BE80000F0CCFC0346184600F0B0FB0346013B3E
:104BF800FA689A4234BF01230023DBB2002B12D09B
:104C08007B683969184600F0B9FC0346F96818460C
:104C180000F0D3FB0346B9681846FFF7F0FCFB68C1
:104C28000133FB60D9E73B6901333B61BEE700BF55
:104C38001C37BD4690BD00BF90B9020830BA0208C3
:104C4800C0B90208B0B58EB000AF786039607B6833
:104C5800184600F042FCF8617B684FF00002DA6009
:104C680000237B63F86900F071FB0346013B7A6B14
:104C78009A4234BF01230023DBB2002B27D0796B83
:104C8800386800F08DFC03461C68796BF86900F001
:104C980094FB03461846FFF772FC03461946204664
:104CA800FBF77EFF0346BB607B68DC68B968B868C1
:104CB800FCF780F8034619462046FBF773FF0346C6
:104CC8001A467B68DA607B6B01337B63CAE7F86955
:104CD80000F03CFB03465A1E7B68DC681046FCF774
:104CE80011F8034619462046FCF718F903461A46F8
:104CF8007B68DA607B68DB681846FFF7B2FB024620
:104D08007B68DA607B681A697B685B6919461046BC
:104D1800FCF750F803461A467B68DB6819461046CC
:104D2800FBF740FF03461846FBF7DEFB04460D463B
:104D38007B685B691846FBF7D7FB4FF00002534BC3
:104D4800FBF774FA02460B4620462946FBF74EFD50
:104D580003460C4618462146FBF7CEFE02467B6802
:104D68001A6100233B63F86900F0F0FA0346013B3F
:104D78003A6B9A4234BF01230023DBB2002B12D0D6
:104D8800396BF86900F019FB0446396B386800F094
:104D980007FC03461B6819462046FFF776FC3B6B69
:104DA80001333B63DFE77B68184600F009FC0346E4
:104DB800023BFB62FB6A002B2CD07B68F96A184621
:104DC80000F0DCFBB8617A68FB6A013319461046CB
:104DD80000F0D4FB78610023BB62B86900F0B6FA32
:104DE8000246BB6A934234BF01230023DBB2002B87
:104DF8000CD0B96AB86900F0E0FA03467969184638
:104E0800FFF762FCBB6A0133BB62E6E7FB6A013B62
:104E1800FB62CFE77B68184600F0D2FB0346013BF4
:104E28007B627B6A002B2DD07B68796A184600F07C
:104E3800A5FB38617A687B6A013B1946104600F089
:104E48009DFBF86000233B62386900F07FFA034657
:104E5800013B3A6A9A4234BF01230023DBB2002B9C
:104E68000CD0396A386900F0A8FA0346F968184680
:104E7800FFF746FC3B6A01333B62E5E77B6A013B8F
:104E88007B62CEE700BF3837BD46B0BD0000F03FBB
:104E980080B584B000AF78603960386800F0B5F943
:104EA8000023FB607B68184600F0A0FB0346184609
:104EB80000F04CFA0346013BFA689A4234BF0123DA
:104EC8000023DBB2002B18D07B68184600F08EFB5D
:104ED8000346F968184600F04FFA03461846FFF7EC
:104EE8004EFB0346BB6007F108031946386800F01B
:104EF800A2FBFB680133FB60D4E700BF1037BD4657
:104F080080BD000080B586B000AF7860244B0022D9
:104F18001A8001237B617B68184600F051FB02462A
:104F28007B69934234BF01230023DBB2002B33D0CB
:104F38007A687B69013B1946104600F01FFBF86050
:104F480000233B617B687969184600F017FB03462C
:104F5800184600F0FBF90346013B3A699A4234BF10
:104F680001230023DBB2002B12D07B687969184635
:104F780000F004FB03463969184600F01EFA0346A0
:104F8800F9681846FFF728FC3B6901333B61D9E70C
:104F98007B6901337B61BEE700BF1837BD4680BD22
:104FA8006C03002080B586B000AF7860244B0022E7
:104FB8001A8001237B617B68184600F001FB0246DA
:104FC8007B69934234BF01230023DBB2002B33D02B
:104FD8007A687B69013B1946104600F0CFFAF86001
:104FE80000233B617B687969184600F0C7FA0346DD
:104FF800184600F0ABF90346013B3A699A4234BFC0
:1050080001230023DBB2002B12D07B687969184694
:1050180000F0B4FA03463969184600F0CEF90346A1
:10502800F9681846FFF712FC3B6901333B61D9E781
:105038007B6901337B61BEE700BF1837BD4680BD81
:105048006C0300200000000090B591B000AF07F19C
:105058001803184600F000FB5B4A07F1280392E8A2
:10506800030083E8030007F1180007F1280393E819
:10507800060000F01BFB07F118023B4611461846D4
:10508800FFF7C8FC04215148FDF740FE0346002BFA
:1050980014BF01230023DBB2002B57D000224FF4AA
:1050A80000614A48FDF749FE07F1240348491846BC
:1050B800FFF7FAF93B4646491846FFF731FD07F175
:1050C800240344491846FFF71FFA424800F0D0F875
:1050D800044607F11803184600F003FB03461B6853
:1050E8009C4206D03C4B3D4A4FF4CC713C481EF0E4
:1050F800A3FA3B4637491846FFF7A4FD3B46394912
:105108001846FFF7C5FE3B461846FFF76AFC0346FC
:105118001846FBF7E9F901231C4629A3D3E9002324
:10512800FBF7ACFC0346002B01D100231C46E3B27D
:10513800002BB9D03B461846FFF7E4FE00BF01221A
:105148004FF400612148FDF7F8FD03E03B4618469F
:10515800FFF728FF3B461846FFF7D4FE03F07CFB19
:10516800214B1B68BB63214B1B68FB6307F13803AA
:105178003B6302237B6307F1300393E8060014487E
:1051880000F0E7FA3B4612491846FFF7C9FC3B46D0
:1051980014491846FFF77CFE0021124800F0F4FA83
:1051A80003461B68184603F00BFB01210D4800F06D
:1051B800EBFA03461B68184603F0B6FACEE700BFC1
:1051C800FCA9F1D24D62503F00BA0208000C014020
:1051D8004803002054030020DCB902086CBA020816
:1051E800C0B902086003002074040020780400207D
:1051F80080B582B000AF78607B68184600F0DFFAAF
:105208007B6818460837BD4680BD80B582B000AFC0
:1052180078607B681B681946786800F0F7FA00BF69
:105228000837BD4680BD80B582B000AF7860396070
:105238007B685A687B689B689A420CD078687B6860
:105248005B683A68194600F003FB7B685B681A1DC7
:105258007B685A6008E0786800F00DFB03463A68FE
:105268001946786800F018FB00BF0837BD4680BDB6
:1052780080B483B000AF78607B685B681A467B684F
:105288001B68D31A9B1018460C37BD4680BC704764
:1052980080B582B000AF78607B68184600F094FB58
:1052A8007B6818460837BD4680BDB0B582B000AFF0
:1052B80078607B681C687B685D687B68184600F0CE
:1052C800AAFB03461A462946204600F0AEFB7B6837
:1052D800184600F086FB7B6818460837BD46B0BD07
:1052E80080B483B000AF78607B6818460C37BD4641
:1052F80080BC704780B582B000AF7860396038688C
:10530800FFF7EEFF03461946786800F0A6FB00BFDA
:105318000837BD4680BD80B584B000AF7860786836
:1053280000F0CAFB0346FB6007F10C030121184695
:1053380000F0D3FB0346BB6007F10803184600F0F2
:10534800E5FB034618461037BD4680BD80B483B0E0
:1053580000AF78607B685B681A467B681B68D31A65
:10536800DB10044A02FB03F318460C37BD4680BC29
:10537800704700BFABAAAAAA80B483B000AF786018
:1053880039607B6819683A6813465B001344DB0090
:105398000B4418460C37BD4680BC704780B483B0B8
:1053A80000AF786039607B681A683B68DB0013449B
:1053B80018460C37BD4680BC704780B483B000AF38
:1053C800786039607B6819683A6813465B00134453
:1053D800DB000B4418460C37BD4680BC704780B4D0
:1053E80083B000AF786039607B681A683B68DB007F
:1053F800134418460C37BD4680BC704780B582B050
:1054080000AF78607B68184600F08BFB7B68184615
:105418000837BD4680BD80B483B000AF78607B6834
:105428005B681A467B681B68D31A9B1018460C37B2
:10543800BD4680BC704780B582B000AF78607B689D
:10544800184600F09FFB7B6818460837BD4680BDAC
:10545800B0B582B000AF78607B681C687B685D6817
:105468007B68184600F0BCFB03461A4629462046CE
:1054780000F0C0FB7B68184600F092FB7B6818467A
:105488000837BD46B0BD80B483B000AF78607B6894
:1054980018460C37BD4680BC704780B582B000AF57
:1054A800786039603868FFF7EEFF03461946786878
:1054B80000F0B8FB00BF0837BD4680BD80B483B09C
:1054C80000AF786039607B681A683B689B001344BA
:1054D80018460C37BD4680BC704780B584B000AF15
:1054E8007860786800F0CDFB0346FB6007F10C0399
:1054F8000121184600F0D6FB0346BB6007F10803FC
:10550800184600F0EBFB034618461037BD4680BD31
:1055180080B483B000AF78607B6818460C37BD460E
:1055280080BC704780B582B000AF78603960386859
:10553800FFF7EEFF03461946786800F0E4FB00BF6A
:105548000837BD4680BD80B584B000AF7860786804
:1055580000F008FC0346FB6007F10C030121184624
:1055680000F011FC0346BB6007F10803184600F081
:1055780026FC034618461037BD4680BD80B483B06C
:1055880000AF786039607B6819683A6813465B0039
:1055980013449B000B4418460C37BD4680BC70472B
:1055A80080B483B000AF786039607B681A683B6864
:1055B8009B00134418460C37BD4680BC704700005A
:1055C80080B483B000AF78607B685B681A467B68FC
:1055D8001B68D31A9B10044A02FB03F318460C37C6
:1055E800BD4680BC704700BFABAAAAAA80B584B0EC
:1055F80000AF7860786800F0EDFB0346FB6007F1C8
:105608000C030121184600F0F9FB0346BB6007F1C3
:105618000803184600F00EFC034618461037BD462E
:1056280080BD80B483B000AF78607B6818460C37C3
:10563800BD4680BC704780B582B000AF78603960E5
:105648003868FFF7EEFF03461946786800F007FC54
:1056580000BF0837BD4680BD80B582B000AF786016
:105668007B68184600F029FC7B6818460837BD4659
:1056780080BD80B483B000AF78607B681B68184633
:105688000C37BD4680BC704790B583B000AF7860DA
:105698007868FFF7EEFF0446786800F033FC0346AD
:1056A8009B00234418460C37BD4690BDB0B586B064
:1056B80000AFF8603B1D83E806003B1D1846FFF766
:1056C800D8FF04463B1D1846FFF7DEFF02462B466F
:1056D8002146F86800F021FCFB6818461837BD46DB
:1056E800B0BD80B584B000AF7860786800F09FFCEA
:1056F8000346FB6007F10C030121184600F0A8FCE3
:105708000346BB6007F10803184600F0BAFC0346DD
:1057180018461037BD4680BD80B483B000AF7860AE
:105728007B681B6818460C37BD4680BC704790B52F
:1057380083B000AF78607868FFF7EEFF04467868BA
:1057480000F0AAFC03469B00234418460C37BD46CC
:1057580090BDB0B586B000AFF8603B1D83E8060089
:105768003B1D1846FFF7D8FF04463B1D1846FFF7B8
:10577800DEFF02462B462146F86800F098FCFB68DD
:1057880018461837BD46B0BD80B483B000AF786006
:1057980039607B681A683B689B00134418460C37CD
:1057A800BD4680BC704780B582B000AF786078682D
:1057B80000F01CFD7B6818460837BD4680BD80B5E3
:1057C80082B000AF78607B68184600F0FAFC7B680E
:1057D80018460837BD4680BD80B582B000AF7860F6
:1057E8007B6819687B689B681A467B681B68D31AB4
:1057F8009B101A46786800F005FD7B681846FFF78D
:10580800D2FF7B6818460837BD4680BD90B583B087
:1058180000AF786039607B685C687B68184600F088
:1058280004FD03461A462146386800F008FD7B68E7
:105838003A685A6000BF0C37BD4690BD80B483B04B
:1058480000AF78607B6818460C37BD4680BC70474F
:1058580080B584B000AFF860B9607A607868FFF707
:10586800EDFF03461A46B968F86800F0F6FC00BF79
:105878001037BD4680BD80B584B000AF78607B68C6
:105888001A1D07F10C031146184600F0FEFCFB68D0
:1058980018461037BD4680BDB0B58AB000AFF86075
:1058A800B9607A60414A0121F86800F0FDFC78622D
:1058B800F86800F041FD03467B6107F1140207F127
:1058C80008031146184600F047FD03463B62FB6893
:1058D800796A184600F056FDF861FB69BB61FC68FF
:1058E8003B6A9B00FA69D5187868FFF7A7FF03465B
:1058F8001A4629462046FFF7ABFF0023BB61FB6829
:105908001C6807F10803184600F050FD03461D689F
:10591800FB68184600F089FC0346FA6929462046C8
:1059280000F04EFDB861BB690433BB6107F10803A1
:10593800184600F03BFD03461C68FB685D68FB6881
:10594800184600F072FC0346BA692946204600F062
:1059580037FDB861FB681C68FB685D68FB68184622
:1059680000F063FC03461A462946204600F067FC0F
:10597800F868FB681968FB689B681A46FB681B682F
:10598800D31A9B101A4600F03DFCFB68FA691A60AE
:10599800FB68BA695A607B6A9B00FA691A44FB681B
:1059A8009A6000BF2837BD46B0BD00BF08BA0208DC
:1059B80080B582B000AF7860786800F02FFD7B6812
:1059C80018460837BD4680BD80B582B000AF786004
:1059D8007B68184600F00DFD7B6818460837BD4601
:1059E80080BD80B582B000AF78607B6819687B683D
:1059F8009B681A467B681B68D31ADB101A467868BE
:105A080000F018FD7B681846FFF7D2FF7B68184640
:105A18000837BD4680BD80B483B000AF78607B682E
:105A280018460C37BD4680BC704780B584B000AFBF
:105A3800F860B9607A60B968F86800F00EFD00BFD8
:105A48001037BD4680BD80B483B000AF78607B68F6
:105A580018460C37BD4680BC7047B0B582B000AF61
:105A6800786039607B685A687B689B689A4212D074
:105A78007C687B685D683868FFF7E5FF03461A466F
:105A88002946204600F0F6FC7B685B6803F10802B3
:105A98007B685A600CE0786800F00EF804463868B5
:105AA800FFF7D1FF03461A462146786800F0F6FC56
:105AB80000BF0837BD46B0BD80B584B000AF786080
:105AC8007B681A1D07F10C031146184600F072FD99
